:020000040800F2
:100000009034002089020008373600082F36000897
:100010003336000821170008713B0008000000007B
:10002000000000000000000000000000F1010008D6
:100030007D17000800000000350200086136000846
:10004000A3020008A3020008A3020008A3020008FC
:10005000A3020008A3020008A3020008A3020008EC
:10006000A30200088117000895170008251700084B
:10007000A3020008A3020008A3020008A3020008CC
:10008000A3020008A3020008A3020008A3020008BC
:10009000A3020008A3020008A3020008A3020008AC
:1000A000A3020008A3020008A3020008A30200089C
:1000B000A3020008A3020008A3020008A30200088C
:1000C000A3020008A3020008A3020008A30200087C
:1000D000A3020008613B0008A3020008A302000875
:1000E000A3020008A3020008A3020008A30200085C
:1000F000A3020008A3020008A3020008A30200084C
:10010000A3020008A3020008A3020008A30200083B
:10011000A3020008A3020008A3020008A30200082B
:10012000A3020008A3020008A3020008A30200081B
:1001300000F002F800F04DF80AA090E8000C8244AC
:100140008344AAF10107DA4501D100F042F8AFF289
:10015000090EBAE80F0013F0010F18BFFB1A43F0A5
:1001600001031847EC7000000C710000103A24BF26
:1001700078C878C1FAD8520724BF30C830C144BF0C
:1001800004680C607047000000230024002500264E
:10019000103A28BF78C1FBD8520728BF30C148BFEA
:1001A0000B607047662906F0FB87642900F0F88031
:1001B000732900F03B84002070471FB500F0A0FCBD
:1001C00004000020002106F041FCE0601FBD10B5D6
:1001D00010BD00F099FD1146FFF7EFFF04F066F83F
:1001E00000F0B7FD03B4FFF7F2FF03BC03F0F2FC2D
:1001F000224B19680868B0E8F00F80F30988BFF354
:100200006F8F4FF0000080F311884EF00D0E704795
:100210000000000006480068006880F3088862B6A5
:1002200061B6BFF34F8FBFF36F8F00DF00BF00BF1A
:1002300008ED00E0EFF30980BFF36F8F0F4B1A68F2
:1002400020E9F00F106008B54FF0500080F31188DE
:10025000BFF34F8FBFF36F8F05F086FC4FF00000A8
:1002600080F31188BDE8084019680868B0E8F00F0D
:1002700080F30988BFF36F8F704700BF40000020F4
:10028000EFF30580704700000948804709480047A0
:10029000FEE7FEE7FEE7FEE7FEE7FEE7FEE7FEE736
:1002A000FEE7FEE704480549054A064B7047000093
:1002B0007536000831010008902E0020903400208F
:1002C0009030002090300020704700000FB40449A7
:1002D00010B503AA029800F0ADFB10BC5DF814FB4A
:1002E0002C0000202DE9F0410E460446002020623B
:1002F0002046E168884730B3252805D0D4E901219C
:100300009047206A401CF2E7E168204600278847B2
:10031000050018D0A5F14100192802D820354FF466
:1003200000673246294620462760FFF73BFF40B171
:10033000012804D0F61D26F007060836D8E7361D3A
:10034000D6E72846DAE7206ABDE8F08170B50C46AA
:100350000546012A05D02878800600D5EA690023E1
:1003600002E0012305E05B1C934202D2E05C00281E
:10037000F9D1A869E618C01AA861286A1844286249
:100380002846AFF3008004E0D5E9012114F8010B01
:100390009047B442F8D32846AFF3008070BD000008
:1003A0002DE9F0410646002410687529314616A54E
:1003B00010D0AFF30080002802DA404213A507E016
:1003C00031688A0701D512A502E0490704D511A5B5
:1003D000012401E0AFF3008000210A2206F1240786
:1003E00009E0B0FBF2FCB0FBF2F302FB1C00303082
:1003F00078541846491C0028F3D123462A46304633
:10040000BDE8F04100F080B8000000002D000000C1
:100410002B00000020000000032A40F2308010F082
:10042000030C00F0158011F8013BBCF1020F62448F
:1004300098BF11F801CB00F8013B38BF11F8013B20
:10044000A2F1040298BF00F801CB38BF00F8013BCD
:1004500011F0030300F00083083AC0F0088051F85F
:10046000043B083A51F804CBA0E80810F5E7121D48
:100470005CBF51F8043B40F8043BAFF30080D20767
:1004800024BF11F8013B11F801CB48BF11F8012B33
:1004900024BF00F8013B00F801CB48BF00F8012B56
:1004A000704702F0FF0343EA032242EA024200F0EF
:1004B00007BB4FF0000200B513469446964620391C
:1004C00022BFA0E80C50A0E80C50B1F12001BFF40D
:1004D000F7AF090728BFA0E80C5048BF0CC05DF873
:1004E00004EB890028BF40F8042B08BF704748BFC1
:1004F00020F8022B11F0804F18BF00F8012B704735
:1005000070477047704770472DE9F0470D46994690
:100510009246044600F124080168880604D5E06983
:1005200021F01001216000E00120A84201DD471BFD
:1005300000E00027A1697A1902EB0900081AA061FE
:100540002078C00602D42046AFF30080002608E0E1
:10055000D4E901211AF806009047206A401C761C55
:1005600020624E45F4DB2078C0060AD52046AFF362
:10057000008006E0D4E9012130209047206A401C29
:100580002062381EA7F10107F4DC07E0D4E901215D
:1005900018F805009047206A401C2062281EA5F12B
:1005A0000105F3DC2046AFF300802078000602D579
:1005B0000220BDE8F0870120FBE770472DE9FF4FDF
:1005C0000C461E464FF0FF378BB0D2E90001DDF834
:1005D00060800A908A46C1F30A5505B93D4600215C
:1005E00008464FF00000BAF1000F00F4400005DAB1
:1005F00000EB80004FF4400101EA50004FEA9059AF
:10060000B9F1010F00DDB9460A9850EA4A000ED050
:1006100044F61050A5F2FF3545432F14B8F1000FF2
:100620001ED07542291E1EDDC9F100021CE0B8F182
:10063000010F4FF0000001D0302103E0F24305E04C
:100640002154401CB042FBDB3046002200212154E3
:100650000B99C1F80880C1E900200FB0BDE8F08F08
:10066000BD1B6D1CDEE74A4600DA694206A800F0B1
:10067000D1FA06AB93E8070003AB83E807005046C6
:100680000A9900F0AFFB8DE80700A0F500501F3875
:1006900000900398002D0ADD42F21F014A460844EB
:1006A000002303A90390684600F018FE09E0A0F5B6
:1006B00000504A461F38002303A90390684600F003
:1006C00022FE8DE807000004000C03D04FF0FF303D
:1006D000410800E01046B8F1000F03D0002200925C
:1006E00015461EE0751E05D400F00EFA3032625534
:1006F0006D1EF9D5B3460122084302D000227F1CAB
:1007000004E02078302801D100227F1E002A0997BA
:1007100084D01DE0112D07DA00F0F6F93032625571
:100720006D1C50EA0102F5D1084302D00098C8B10F
:100730000EE00021681E05E0235C625C63542254D5
:10074000401E491C8142F7DBAB46A81B401E0990A6
:10075000002004F80B000B98099AC0F80880C0E943
:10076000002B7AE711264FF0000857E72DE9F04FEC
:1007700088460446D21D22F0070191B0D1E900015C
:10078000CDE90A0103F0F6F902460B98C00F01D03B
:100790002D2007E02068810701D52B2002E02021D1
:1007A00001EAC000032A099001D0072A05DB0346AD
:1007B0004146204600F0EEF90BE12078800601D595
:1007C000E06900E00620B8F1650F814606D0B8F177
:1007D000660F18D0B8F1670F70D131E00020B9F181
:1007E000110F009001DB112301E009F101030AAAB6
:1007F00001A90CA8FFF7E2FEDDE90C70002609F163
:100800000105834647E001204B4600904FF000472A
:100810000AAA01A90CA8FFF7D1FEDDE90DB00C99D9
:100820005D46002610B909F101000D18B9EB05006D
:1008300003D4C0F1FF3609F10105A5EB09002BE057
:10084000B9F1010F01DA4FF001090020B9F1110FE0
:100850000090484601DD112300E003460AAA01A9E1
:100860000CA8FFF7ABFEDDE90C704D460026834671
:10087000207800070AD4AB4500DA5D4601A8012DB7
:1008800004DD411911F8011C302907D04F4502DA67
:1008900017F1040F04DA012082460FE06D1EEEE727
:1008A000002F02DCED1B3E4403E0781CA84200DD73
:1008B0007D1CB81B00F1010A4FF0004720780007AB
:1008C00003D4AA4501DB4FF0FF3A0021B7F1004FF6
:1008D0000DF143088DF8431024D002202B23002F64
:1008E00001DA7F422D230A21021EA0F1010000DC63
:1008F0005FB197FBF1FC97FBF1F201FB1C7C174603
:100900000CF1300C08F801CDEEE7A8F101000370FE
:100910002188090501D5452100E06521A0F10108E4
:1009200000F8011C09980FA9A1EB0807FF1D00B1F1
:100930000120411901EBEA70A1693844081A401EF0
:10094000A0612078C00602D42046AFF30080099849
:1009500028B1D4E901219047206A401C2062207808
:10096000C00622D52046AFF300801EE0002E04DB37
:10097000B34502DD01A8805D00E03020D4E901210B
:100980009047206A401C2062761CAAF101005FEAB1
:10099000000A0AD100F0B4F8C0680168405CD4E9EC
:1009A00001219047206A401C2062281EA5F1010504
:1009B000DCDC07E0D4E9012118F8010B9047206A3C
:1009C000401C2062381EA7F10107F3DC2046AFF37C
:1009D0000080032011B041E601694A1C02610878D9
:1009E000704700B58FB0CDE901310021059105496F
:1009F0007944CDE9031011466846FFF773FC0FB048
:100A000000BD0000E5FFFFFF10B5436913B1AFF370
:100A1000008001E0FFF79AFC012010BD127800F180
:100A200024010A7000224A700122EDE711684FF09C
:100A3000FF32E9E7074B70B50D467B44FFF7D1FF66
:100A40000446284600F058F910B14FF0FF3070BD51
:100A5000204670BDF335000010B5203AC0F00B8081
:100A6000B1E81850203AA0E81850B1E81850A0E8B2
:100A70001850BFF4F5AF5FEA027C24BFB1E818500C
:100A8000A0E8185044BF18C918C0BDE810405FEA7C
:100A9000827C24BF51F8043B40F8043B08BF7047F8
:100AA000D20728BF31F8023B48BF11F8012B28BFFD
:100AB00020F8023B48BF00F8012B70474FF00002BE
:100AC0000429C0F0128010F0030C3FF4F4ACCCF118
:100AD000040CBCF1020F18BF00F8012BA8BF20F8CE
:100AE000022BA1EB0C01FFF7E6BC5FEAC17C24BF3F
:100AF00000F8012B00F8012B48BF00F8012B7047CC
:100B0000004870474C2E002030B5B0F10A024FEA81
:100B1000900E71F100034EEA817EB0EB0E0061EBA6
:100B200091014FEA101E4EEA017E10EB0E0041EBE0
:100B300011114FEA102E4EEA016E10EB0E0041EB40
:100B400011214FEA104E4EEA014E10EB0E0041EB20
:100B50001141401841F100014FEAD00040EA4170D4
:100B60004FEAD10110EB80054FEA810444EA90740A
:100B700044EB01046D1944EB0404521BA3414FF0F4
:100B8000000348BF0A3200D530BD401C41F10001CE
:100B900030BD00002DE9F0411F46044603260168E0
:100BA000072A01F4006004DB08B116A505E016A5CC
:100BB00003E008B115A500E015A521F010002060A4
:100BC000A069C01EA0610FB1401EA0612046AFF316
:100BD00000804FB1D4E9012138469047206A401C7B
:100BE0002062C01C206206E0206AFAE7D4E90121F5
:100BF00015F8010B9047761EF8D22046AFF300801F
:100C0000BDE8F0814E414E006E616E00494E4600D7
:100C1000696E66002DE9F047814616468AB0354870
:100C200078440DC88DE80D0032487844801C03AC30
:100C30000DC884E80D0041F69B300844372190FB35
:100C4000F1F290FBF1F5A5F1800501FB12041B3CCC
:100C500002D56442012000E00020DFF898A0804621
:100C60000027FA44AAF1BE0A0EE0E0070AD0324695
:100C7000684607EB470101230AEB810100F043FBC3
:100C80008DE8070064107F1C002CEED1194F7F44C3
:100C9000AE3F19E0E80715D007EB04100DF1180A74
:100CA00090E80E008AE80E00C068F04201D1981961
:100CB00008903246012306A903A800F024FB03ABE9
:100CC00083E807006D10641C002DE3D14FF0010391
:100CD00032466946B8F1000F03A802D000F0FEFAD0
:100CE00001E000F010FBC9E90001C9F808200AB0D2
:100CF000BDE8F08714660000007B00F080007047BC
:100D0000004870472C2E00207546FFF7F9FFAE46CD
:100D100005006946534620F00700854618B020B507
:100D2000FFF7C0FABDE820404FF000064FF0000783
:100D30004FF000084FF0000B21F00701AC46ACE883
:100D4000C009ACE8C009ACE8C009ACE8C0098D46F0
:100D5000704710B50446AFF300802046BDE8104050
:100D6000FFF740BA4FF0013C50F8042B51F8043B18
:100D70009A4221D1A2EB0C03934313EACC1317D16F
:100D800050F8042B51F8043B9A4215D1A2EB0C0306
:100D9000934313EACC130BD150F8042B51F8043BC6
:100DA0009A4209D1A2EB0C03934313EACC13DBD094
:100DB0004FF00000704700BFD01A01BAB1FA81F1BC
:100DC00001F0180122FA01F0CB40C1F12001DBB2A1
:100DD000C0B2C01A2CFA01F3D11A914311EAC3111F
:100DE000E6D170475FEA400C08BF91F0000F4FEA70
:100DF0008C234FEAC12243EA51514FEA1C5018BFDD
:100E000000F5F0404FEA300018BF41F000415FEAC2
:100E10006C5C00F02980BCF1FF3F08BF40F08040CF
:100E20007047130C06BF12044FF0100C4FF0000C6B
:100E3000130E04BF12020CF1080C130F04BF1201B1
:100E40000CF1040C930F04BF92000CF1020CD30FB1
:100E500004BF52000CF1010C11464FF00002A0F14A
:100E60001F00A0EB0C00704711F0004F08BF704747
:100E700031F000413FF4D5AF0B0C06BF09044FF031
:100E8000100C4FF0000C0B0E04BF09020CF1080C03
:100E90000B0F04BF09010CF1040C8B0F04BF890078
:100EA0000CF1020CCB0F04BF49000CF1010CCCF18A
:100EB0002003A0EB0C0022FA03F302FA0CF241EA41
:100EC000030100F10100704720F07F4C80EA03002D
:100ED00023F07F47ACEB070303F57C5300F00040A1
:100EE00003F1FF032DE980494FEA154B09B44FEA9E
:100EF000144325EA0B4E24EA03480FF2042606EBBE
:100F0000132749083E785FEA320203FB0667C7F5FC
:100F1000000707FB06F64FEA54374FEAD64606F1BC
:100F2000020607FB066CCCF1005C4FEA1C472CEA7A
:100F3000074C07FB06F40CFB06F504EB15464FEADD
:100F4000961634BF00204FF000404FEAD13706FB21
:100F500007FC4FEA1C4C0CFB0BF7D21B03FB0CF7F6
:100F600061EB07010CFB0EF7B0EB074072EB174289
:100F70000CFB08F734BFA2EB0742B2EB074261EB70
:100F800017414FEA0C444FEA910706FB07FC4FEA72
:100F90001C4C0CFB0BF7B0EBC74072EB573203FB5A
:100FA0000CF734BFA2EBC742B2EBC74261EB57313B
:100FB0000CFB0EF7B0EBC70072EB57720CFB08F797
:100FC00034BFA2EBC702B2EBC70261EB5771039FBC
:100FD0004FEA816141EA921104EBCC044FEAD13728
:100FE0004FEA826206FB07FC42EA90124FEA8060F9
:100FF0004FEA1C4C0CFB0BF7D21B03FB0CF761EB0D
:1010000007010CFB0EF7B0EB074072EB17420CFB2D
:1010100008F734BFA2EB0742B2EB074261EB17417E
:101020004FEA8C554FEA910704EB9C2406FB07FC22
:101030004FEA1C4C0CFB0BF7B0EBC74072EB57327E
:1010400003FB0CF734BFA2EBC742B2EBC74261EB24
:1010500057310CFB0EF7B0EBC70072EB57720CFB6D
:1010600008F734BFA2EBC702B2EBC70261EB5771BE
:1010700015EB4C254FEA816141EA92114FEA8262F9
:101080004FEAD13742EA901206FB07FC44F1000414
:101090004FEA80604FEA1C4C0CFB0BF7D21B03FBA2
:1010A0000CF761EB07010CFB0EF7B0EB074072EB9E
:1010B00017420CFB08F734BFA2EB0742B2EB074222
:1010C00061EB174115EB1C154FEA813141EA924162
:1010D0004FEA823242EA90424FEA80304FEA0C7681
:1010E00044F1000448EA03434EEA0B484FF0000E77
:1010F000B2EB080C71EB030724BF624639464EEB96
:101100000E0E4FF0000B0018524149414BEB0B0BF8
:10111000B2EB080C71EB03077BF1000B24BF6246B6
:1011200039464EEB0E0E4FF0000B0018524149416C
:101130004BEB0B0BB2EB080C71EB03077BF1000BD5
:1011400024BF624639464EEB0E0E51EA020718BF25
:1011500046F0010616EB0E7655F1000254F100013F
:1011600003D5BDE88901BDE80088BDE88901BDE877
:101170000048B619524141EB0101A3F10103704748
:1011800080807F7E7D7C7B7A7978777676757473C4
:10119000727171706F6E6E6D6C6C6B6A6A69686883
:1011A000676666656464636362616160605F5F5E19
:1011B0005E5D5D5C5C5B5B5A5A595958585757568F
:1011C00056555555545453535252525151505050F4
:1011D0004F4F4F4E4E4D4D4D4C4C4C4B4B4B4A4A46
:1011E0004A4949494848484747474746464645458A
:1011F00045444444444343434342424242414141C3
:10120000002B9C4630D477002BD01CB54FEA370713
:1012100003B44FF010004FF01001BAF1000F06D0E8
:10122000BCF1000FDCBF40F0080040F008014FF0B7
:1012300000000FBCBDE810400BF1010BBBF1010F2A
:1012400008BF5FEA170722BF12F1010211F1010185
:101250004FF0004143F1000300F0004043EA00007A
:101260007047F9D35708D0E746EA064613F1400F16
:101270004FEA16461FDD13F1200FDFBF16430A4663
:10128000002120335B42BED0C3F1200746EA064668
:1012900002FA07F74FEA164646EA0706C3F12007A7
:1012A00022FA03F201FA07F721FA03F14FF00003E3
:1012B00042EA0702A7E746EA020646EA06464FEA7E
:1012C000164646EA0106BCBF46EA0646360C4FF013
:1012D00000034FF000024FF0000194E72DE9804C2D
:1012E0009A46934670B491E8380007C831EA400C3A
:1012F00048BF34EA430C03D5FFF7E6FDFFF780FF54
:10130000F0BCBDE8008C2DE9804C9A46934670B441
:1013100091E8380007C810F0804F08BF13F0804FE5
:1013200003D100F005F8FFF76BFFF0BCBDE8008CBF
:1013300020F07F4780EA030023F07F4C07EB0C038B
:10134000A3F57C5300F00040A3F1FE0392F0000FE0
:1013500000F0B38095F0000F00F077802DE901498F
:101360004FEA11404FEA144621EA004800FB06FC10
:1013700024EA064708FB06F607FB08F800FB07F718
:1013800018EB06484CEB164C4FEA124B18EB07488B
:101390004FEA15464CEB174022EA0B4E0BFB06FCBE
:1013A00025EA06470EFB06F607FB0EFE0BFB07F7CA
:1013B0001EEB064E4CEB164C4FF000061EEB074E94
:1013C0004CEB174B18EB0B0840F1000018EB0E0B21
:1013D00058EB000840F100008F1A4FF000013CBFAD
:1013E000C943661B14BFB5EB040C00213CBFC943C5
:1013F000F61B4FEA17444EEA8E0E27EA04454FEAE1
:101400001C4704FB07622CEA074C05FB07F70CFBA3
:1014100005F604FB0CFC16EB074642EB174216EBF5
:101420000C4642EB1C421BEB060658EB0202414104
:1014300046EA9E0601D5BDE80189B619524141EB45
:101440000101A3F10103BDE801894FEA14454FEA08
:10145000114724EA054621EA074C05FB07F406FB81
:1014600007F70CFB06F105FB0CFC11EB074144EB05
:1014700017444FEA124711EB0C4144EB1C4422EA9B
:10148000074C05FB07F206FB07F70CFB06F605FB0E
:101490000CFC16EB074642EB174216EB0C4642EBF0
:1014A0001C456A1854F1000148BF7047B6195241F3
:1014B00041EB0101A3F10103704795F0000F37D014
:1014C0004FEA11424FEA144721EA024624EA074C48
:1014D00002FB07F106FB07F70CFB06F402FB0CFC12
:1014E00014EB074441EB17414FEA154714EB0C444A
:1014F00041EB1C4125EA074C02FB07F506FB07F709
:101500000CFB06F602FB0CFC16EB074645EB1745F9
:1015100016EB0C4645EB1C42121951F1000148BF75
:101520007047B619524141EB0101A3F10103704725
:101530004FEA14454FEA114724EA054621EA074CD1
:1015400005FB07F106FB07F70CFB06F24FF0000660
:1015500005FB0CFC12EB074241EB174112EB0C426E
:1015600051EB1C4148BF7047921841EB0101A3F1B8
:101570000103704770B5044600252068806800F0BC
:101580000100F0B12068806820F0010021688860C7
:1015900000F042FF05460EE000F03EFF401B02282F
:1015A00009D9A06A40F01000A062E06A40F0010092
:1015B000E062012070BD2068806800F00100002812
:1015C000EAD10020F6E770B505466C6AA06A00F023
:1015D0005000E0B9A06A40F40070A0622068806802
:1015E00000F46020B0F5602F0DD1207B58B9A06ABF
:1015F00020F48070A062A06A00F4805018B9A06A3C
:1016000040F00100A062204600F000FA03E0206AEA
:10161000016B2846884770BD70B505466C6AA06AA4
:1016200040F04000A062E06A40F00400E062204622
:1016300000F0EEF970BD70B50446656A284600F00A
:10164000E6F970BD38B504460025002000902068FA
:10165000806800F0010080BB2068806840F00100D5
:1016600021688860164800681649B0FBF1F00090C8
:1016700002E00098401E009000980028F9D100F088
:10168000CBFE054613E000F0C7FE401B02280ED932
:10169000A06A40F01000A062E06A40F00100E06241
:1016A00000BF002084F8240000BF012038BD20685E
:1016B000806800F001000028E5D00020F6E7000077
:1016C0000000002040420F002DE9F05F04468946EB
:1016D000204605F085FC834605F056FC07464FF092
:1016E00066320D4B05F052FB054605F0C5F9824602
:1016F0004946504605F088FC834605F045FC074600
:101700004FF06632054B05F0E9F9054605F0B4F9EE
:101710008246BDE8F09F000066664A3F66660A4062
:1017200000BFFEE70848006800F0020050B1012049
:101730000649087000BF0448406840F002000249B2
:10174000486000BF70470000000002403D000020DC
:1017500030B590F840500124AC40C56B6C60046813
:1017600063604468102C04D10468A2600468E160DE
:1017700003E00468A1600468E26030BD70470000C7
:1017800010B5082000F082FC08200149086010BD57
:101790001404014010B5102000F078FC102001491D
:1017A000086010BD14040140F8B50446002600206E
:1017B000009000BF94F82400012801D10220F8BD58
:1017C000012084F8240000BF2046FFF7D3FE064620
:1017D000002E62D1A06A20F4885040F00200A0627E
:1017E000022000F0C9FE30490968B1FBF0F040006A
:1017F000009002E00098401E009000980028F9D167
:101800002046FFF71FFF2068806840F0080021682D
:10181000886000F001FE054611E000F0FDFD401B70
:101820000A280CD9A06A20F0020040F01000A06243
:1018300000BF002084F8240000BF0120BFE720681B
:10184000806800F008000028E7D12068806840F038
:1018500004002168886000F0DFFD054611E000F01B
:10186000DBFD401B0A280CD9A06A20F0020040F0E2
:101870001000A06200BF002084F8240000BF0120F7
:101880009DE72068806800F004000028E7D1A06A86
:1018900020F0020040F00100A06200BF002084F8A8
:1018A000240000BF30468AE70000002038B5024619
:1018B00000230020009000BF92F82400012801D1ED
:1018C000022038BD012082F8240000BF48680728A4
:1018D00012D21068406B0C79641E04EB84051F243F
:1018E000AC40A0430D796D1E05EB85050C68AC403E
:1018F00020431468606327E048680D2812D21068FE
:10190000006B0C79E41F04EB84051F24AC40A0435A
:101910000D79ED1F05EB85050C68AC40204314687C
:10192000206311E01068C06A0C790D3C04EB84055B
:101930001F24AC40A0430D790D3D05EB85050C68D7
:10194000AC4020431468E06208680A2812D310688B
:10195000C0680C780A3C04EB44050724AC40A04363
:101960000D780A3D05EB45058C68AC4020431468B2
:10197000E0600FE0106800690C7804EB4405072470
:10198000AC40A0430D7805EB45058C68AC40204386
:10199000146820610868102802D00868112827D12F
:1019A000174C1068A0421ED11068806800F4000037
:1019B000F0B91068806840F400001468A0600868FE
:1019C000102815D10F4800680F4CB0FBF4F000EB65
:1019D00080004000009002E00098401E00900098B7
:1019E0000028F9D104E0906A40F0200090620123C1
:1019F00000BF002082F8240000BF184661E7000005
:101A0000002401400000002040420F007047704752
:101A1000704700002DE9F04104460027002500260C
:101A2000A84614B90120BDE8F081A06810B1207D5E
:101A300000B100BFA06A30B90020E06284F8240041
:101A4000204600F097F82046FFF794FD0746A06A6D
:101A500000F01000002873D1002F7ED1A06A20F47E
:101A6000885040F00200A0623F4AD4E90001904251
:101A700008D1E069B0F5402F02D14FF4002002E018
:101A8000E06900E0E0690143207B41EA4000064351
:101A9000A068B0F5807F02D0A068012802D14FF481
:101AA000807000E000200543207D012811D1207BBB
:101AB00038B9A069401E4FF4006141EA4030054347
:101AC00007E0A06A40F02000A062E06A40F0010058
:101AD000E0622068406820F469402843216848603B
:101AE0002068806821490840304321688860A068E8
:101AF000B0F5807F02D0A068012802D14FF4807039
:101B000000E00020B0F5807F03D1208A401E4FEA1C
:101B100000582068C06A20F4700040EA080021687C
:101B2000C8622068806812490840B04209D100208C
:101B3000E062A06A20F0020040F00100A06211E023
:101B40000BE0A06A20F0020040F01000A062E06A02
:101B500040F00100E062012704E0A06A40F01000BC
:101B6000A062012738465EE7003C0140FDF7E1FF37
:101B7000FE0E1FFF704700002DE9F04104460D46A0
:101B80001646002757492068884203D056492068E6
:101B9000884205D15348001D006800F4702000E021
:101BA000002000287ED100BF94F82400012802D133
:101BB0000220BDE8F081012084F8240000BF204607
:101BC000FFF740FD0746002F6DD1A06A40F6016186
:101BD000884340F48070A06243492068884209D15C
:101BE0004048001D006800F4702008B9012002E0A0
:101BF000002000E0012078B1A06A20F48010A062EB
:101C00002068406800F4806000B3A06A20F40050AF
:101C100040F48050A06219E0A06A40F48010A062F5
:101C200030492068884203D02F492068884205D176
:101C30002C48001D006800F4806000E0002028B1FE
:101C4000A06A20F4005040F48050A062A06A00F422
:101C5000805020B1E06A20F00600E06201E0002040
:101C6000E06200BF002084F8240000BF1F48216A02
:101C700088621F48216AC8621E48216A08636FF0A3
:101C80000200216808602068806840F48070216844
:101C90008860226802F14C0133462A46206A00F02F
:101CA00045F901E01AE014E02068806800F4602043
:101CB000B0F5602F06D12068806840F4A00021684C
:101CC00088600CE02068806840F48010216888609B
:101CD00005E000BF002084F8240000E0012738461A
:101CE00067E700000024014000280140C7150008F4
:101CF000371600081916000870B50446002594F838
:101D00002100022803D00420A0630125C1E020683F
:101D1000006820F00E00216808602068006820F04C
:101D20000100216808605C492068884252D95A49FC
:101D300078392068884201D1012047E0564964394A
:101D40002068884201D1102040E053495039206872
:101D5000884201D1801539E04F493C3920688842DA
:101D600001D1801432E04C4928392068884202D1E0
:101D70004FF480302AE0484914392068884202D163
:101D80004FF4801022E044492068884201D1400489
:101D90001CE042492068884201D1012016E03F49F9
:101DA00014312068884201D110200FE03B492831CE
:101DB0002068884201D1801508E038493C3120680C
:101DC000884201D1801401E04FF480303349091F6B
:101DD000086051E0304978392068884201D10120FB
:101DE00047E02D4964392068884201D1102040E045
:101DF000294950392068884201D1801539E02649A7
:101E00003C392068884201D1801432E022492839C7
:101E10002068884202D14FF480302AE01E491439EC
:101E20002068884202D14FF4801022E01A492068CD
:101E3000884201D140041CE018492068884201D141
:101E4000012016E0154914312068884201D1102084
:101E50000FE0124928312068884201D1801508E03E
:101E60000E493C312068884201D1801401E04FF4D2
:101E70008030094980394860012084F8210000BF82
:101E8000002084F8200000BF606B10B12046616B19
:101E90008847284670BD00008000024008040240C8
:101EA0000146002209B9012070471E4B086898427C
:101EB0000BD21D4B0868C01A1423B0FBF3F080004E
:101EC000086419480838C8630AE0164B0868C01A45
:101ED0001423B0FBF3F08000086412480838C8638C
:101EE000022081F821000868026843F6F0708243FE
:101EF000D1E901031843CB6818430B6918434B69B8
:101F000018438B691843CB69184302430868026081
:101F100000208863012081F82100002081F8200042
:101F200000BFC1E708040240080002402DE9F0416B
:101F300004460D4616461F464FF0000800BF94F8B1
:101F40002000012802D10220BDE8F081012084F8A0
:101F5000200000BF94F8210001282CD1022084F831
:101F600021000020A0632068006820F001002168A3
:101F700008603B46324629462046FFF7E9FBE06A07
:101F800030B12068006840F00E00216808600BE066
:101F90002068006820F0040021680860206800685C
:101FA00040F00A00216808602068006840F00100E5
:101FB0002168086006E000BF002084F8200000BF10
:101FC0004FF002084046BFE710B50446142001F068
:101FD000B1FF082C02D0102C36D11BE008211C4880
:101FE00000F002FA012814D11A480088B0F57A7F6F
:101FF00009D0184908880988491C164B19806421A2
:1020000001F056FF02E014A0FEF760F90120184924
:1020100008701AE010210E4800F0E6F9012812D1EC
:102020000C48008848B10B4908880988491E094BAB
:102030001980642101F03CFF02E00EA0FEF746F992
:1020400002200B49087000E000BF00BF10BD000077
:10205000000801403E000020CAFDD6B5D2D1B5BD72
:10206000D7EEB4F3D6B5A3A1A3A1A3A100000000AD
:1020700018000020CAFDD6B5D2D1B5BDD7EED0A18B
:10208000D6B5A3A1A3A1A3A10000000010B50446EA
:1020900004480068204020B1024804602046FFF751
:1020A00093FF10BD140401402DE9F84702460023B8
:1020B0009C467BE14FF0010808FA03F4D1F8008058
:1020C00008EA0400A0427DD1DFF8F4A2D1F8048030
:1020D000A8EB0A09D0453AD014DCB8F1030F50D070
:1020E00009DCB8F1000F31D0B8F1010F1CD0B8F104
:1020F000020F49D120E0B8F1110F18D0B8F1120F3A
:1021000042D11EE0B9F5881F25D006DCB9F5803F25
:1021100020D0B9F5801F37D11AE0B9F5001F18D0CB
:10212000B9F5041F30D117E0D1F80CC02DE0D1F87B
:102130000C8008F1040C28E0D1F80C8008F1080CA0
:1021400023E0D1F80C8008F10C0C1EE000BF00BFAA
:1021500000BF00BF00BF00BFD1F80880B8F1000F7A
:1021600002D14FF0040C0BE0D1F80880B8F1010F58
:1021700003D14FF0080C146102E04FF0080C5461D9
:1021800003E04FF0000C00E000BF00BFFF2801D8C3
:10219000904601E002F104084646FF2802D84FEAC3
:1021A000830803E0A3F108084FEA88084746D6F8F9
:1021B00000804FF00F0909FA07F928EA09080CFA1C
:1021C00007F900E07AE048EA0908C6F80080D1F88B
:1021D000048008F08058B8F1805F6FD100BFDFF84D
:1021E000E481D8F8188048F00108DFF8D891C9F8E0
:1021F0001880C846D8F8188008F00108CDF800808B
:1022000000BF00BF4FEAB9384FEA930958F8295088
:102210004FEA83784FEA18794FF00F0808FA09F867
:1022200025EA0805DFF8A081424502D14FF00008F9
:1022300024E0DFF89881424502D14FF001081DE00B
:10224000DFF88C81424502D14FF0020816E0DFF83A
:102250008481424502D14FF003080FE0DFF8788116
:10226000424502D14FF0040808E0DFF87081424592
:1022700002D14FF0050801E04FF006084FEA8379DC
:102280004FEA197908FA09F848EA0505DFF850819C
:102290004FEA930948F82950D1F8048008F48038AF
:1022A000B8F5803F0BD1DFF83C81D8F8008048EAD0
:1022B0000008DFF83091C9F800800AE075E0DFF827
:1022C0002481D8F8008028EA0008DFF81891C9F8BE
:1022D0000080D1F8048008F40038B8F5003F0ED132
:1022E000DFF8008108F10408D8F8008048EA000807
:1022F000DFF8F09009F10409C9F800800DE0DFF87B
:10230000E48008F10408D8F8008028EA0008DFF823
:10231000D49009F10409C9F80080D1F8048008F4C8
:102320008018B8F5801F0ED1DFF8B88008F10808D2
:10233000D8F8008048EA0008DFF8A89009F10809F9
:10234000C9F800800DE0DFF89C8008F10808D8F893
:10235000008028EA0008DFF88C9009F10809C9F824
:102360000080D1F8048008F40018B8F5001F0ED1E1
:10237000DFF8708008F10C08D8F8008048EA0008FF
:10238000DFF8609009F10C09C9F800800DE0DFF872
:10239000548008F10C08D8F8008028EA0008DFF81B
:1023A000449009F10C09C9F800805B1CD1F8008049
:1023B00028FA03F8B8F1000F7FF47CAEBDE8F88787
:1023C000000011100010024000080140000C014004
:1023D000001001400014014000180140001C0140A1
:1023E0000800014000040140024693680B400BB115
:1023F000012000E00020704710B5C26821EA020306
:1024000002EA010443EA0443036110BD0AB1016119
:1024100001E00B0403617047014800687047000049
:102420003400002003480068034909780844014942
:1024300008607047340000203C00002010B50848B8
:10244000006840F0100006490860032000F080F8A2
:102450000F2000F007F800F02BF8002010BD00005E
:102460000020024070B504460E4800784FF47A719F
:10247000B1FBF0F00C490968B1FBF0F5284600F01B
:1024800029FD08B1012070BD102C07D20022214681
:10249000501E00F01EF80548046001E00120F2E73C
:1024A0000020F0E73C000020000000203800002061
:1024B000704701460846002809DB00F01F0301228F
:1024C0009A4043099B0003F1E023C3F8002100BFB9
:1024D00070472DE9F05F80460D461646002701F053
:1024E0005DFB074639462A46334601F00700C0F136
:1024F000070ABAF1040F02D94FF0040A01E0C0F153
:10250000070AD14600F1040ABAF1070F02D24FF0D0
:10251000000A01E0A0F1030AD4464FF0010A0AFACA
:1025200009FAAAF1010A0AEA020A0AFA0CFA4FF0B9
:10253000010B0BFA0CFBABF1010B0BEA030B4AEAA4
:102540000B042146404601F031FBBDE8F09F00003E
:1025500000BF00F00702064B19684FF6FF03194051
:10256000044B0B4343EA0221014B196000BF704743
:102570000CED00E00000FA052DE9F04385B00646B9
:1025800042A30FCB01AC0FC444A0006800904FF0F1
:102590000008002500270024A146042E36D004DCC4
:1025A000012E3BD0022E6BD15FE0082E32D0102ED0
:1025B00066D13B484468006800F0807000B301A811
:1025C000C4F38341475C04F4803070B13448406800
:1025D000C0F340401DF8008004F4803040B1314821
:1025E000B0FBF8F000FB07F502E02F4807FB00F511
:1025F0002B48406800F48000B0F5800F01D1A94657
:1026000003E068000321B0FBF1F93AE000F0D2F9F1
:10261000814636E000F0CEF9814632E02048046A77
:1026200004F44070B0F5807F05D104F0020010B1D1
:102630004FF4004918E004F44070B0F5007F07D172
:102640001748406A00F0020010B149F640490BE01B
:1026500004F44070B0F5407F06D11148006800F4E2
:10266000003008B14FF224490BE000F093F90C4917
:102670004968C1F38131491C4900B0FBF1F900E020
:1026800000BF00BF484605B0BDE8F0830203040563
:10269000060708090A0B0C0D0E0F101001020000AE
:1026A0000010024000127A0000093D00F8B504460F
:1026B00000260025207800F0010000286BD00027BC
:1026C0004348C06900F0805070B900BF4048C069FD
:1026D00040F080503E49C8610846C06900F0805013
:1026E000009000BF00BF01273A48006800F48070E6
:1026F000B0B93848006840F4807036490860FFF788
:102700008BFE064606E0FFF787FE801B642801D992
:102710000320F8BD2F48006800F480700028F2D034
:102720002B48006A00F440752DB3A08800F4407077
:10273000A84220D02648006A20F44075012026498E
:102740000860002008602248056205F0010090B191
:10275000FFF762FE064608E0FFF75EFE801B41F2CF
:102760008831884201D90320D3E71948006A00F074
:1027700002000028F0D01648006A20F4407061681A
:10278000084313490862012F04D10846C06920F0AC
:102790008050C86100BF207800F00200022807D1F5
:1027A0000B48406820F44040A1680843084948604D
:1027B000207800F01000102807D10548406820F468
:1027C000800061690843024948600020A1E70000D9
:1027D00000100240007000404004424270B50446C0
:1027E0000D460CB9012070BD5A48006800F0070082
:1027F000A8420ED25748006820F0070028435549E8
:1028000008600846006800F00700A84201D00120D7
:10281000E9E7207800F0020002281DD1207800F0BE
:102820000400042805D14C48406840F4E0604A495F
:102830004860207800F00800082805D14648406824
:1028400040F46050444948604348406820F0F0003C
:10285000A168084340494860207800F0010078B33F
:102860006068012806D13C48006800F4003090B947
:102870000120B8E76068022806D13748006800F0F8
:10288000007040B90120AEE73348006800F0020054
:1028900008B90120A7E73048406820F003006168CC
:1028A00008432D494860FFF7B7FD064609E0FFF7EA
:1028B000B3FD801B41F28831884202D9032092E7A0
:1028C00007E02548406800F00C006168B0EB810F1C
:1028D000EDD12048006800F00700A8420ED91D483D
:1028E000006820F0070028431A490860084600687D
:1028F00000F00700A84201D0012074E7207800F022
:102900000400042807D11448406820F4E060E1681E
:10291000084311494860207800F00800082808D1D1
:102920000D48406820F46050216940EAC1000A491E
:10293000486000F03FF808494968C1F30311074AAD
:10294000515CC8400649086006480068FFF78AFDE8
:10295000002048E70020024000100240A471000857
:102960000000002038000020014800687047000087
:102970000000002000B5FFF7F7FF04494968C1F3E4
:102980000221034A515CC84000BD00000010024013
:10299000B471000800B5FFF7E7FF04494968C1F3C7
:1029A000C221034A515CC84000BD00000010024033
:1029B000B4710008F0B585B00FF26C0C9CE8E01023
:1029C00001A8A0E8E0101CA52D68009500210022B8
:1029D000002300240020194D696801F00C05F5B1B1
:1029E000042D02D0082D19D101E0154819E001ADE0
:1029F000C1F38346AC5D01F4803555B10F4D6D6870
:102A0000C5F340451DF805200D4D6543B5FBF2F3B8
:102A100002E00C4D04FB05F3184602E000BF084835
:102A200000BF00BF05B0F0BD02030405060708099A
:102A30000A0B0C0D0E0F10100102000000100240D6
:102A400000127A0000093D00F8B504460CB90120D7
:102A5000F8BD207800F00100002878D0F8484068E0
:102A600000F00C0004280CD0F548406800F00C0081
:102A7000082811D1F248406800F48030B0F5803F5A
:102A80000AD1EF48006800F4003000285FD0606889
:102A900000285CD10120DBE700BF6068B0F5803F13
:102AA00006D1E748006840F48030E549086028E036
:102AB000606858B9E248006820F48030E049086056
:102AC0000846006820F4802008601AE06068B0F5CD
:102AD000A02F0BD1DA48006840F48020D849086064
:102AE0000846006840F4803008600AE0D448006876
:102AF00020F48030D24908600846006820F4802025
:102B0000086000BF606888B1FFF786FC054606E0F4
:102B1000FFF782FC401B642801D9032098E7C848CE
:102B2000006800F400300028F2D010E0FFF774FCD9
:102B3000054606E0FFF770FC401B642801D903201E
:102B400086E7BF48006800F400300028F2D1207802
:102B500000F00200022857D1B948406800F00C008C
:102B600050B1B748406800F00C00082818D1B448AC
:102B7000406800F4803098B9B148006800F0020065
:102B800020B12069012801D0012061E7AC4800682C
:102B900020F0F800616940EAC100A949086033E00B
:102BA0002069E8B10120A7490860FFF735FC054618
:102BB00006E0FFF731FC401B022801D9032047E75C
:102BC0009F48006800F002000028F2D09C4800688E
:102BD00020F0F800616940EAC1009949086013E0FB
:102BE000002098490860FFF717FC054606E0FFF74C
:102BF00013FC401B022801D9032029E790480068F4
:102C000000F002000028F2D1207800F00800082827
:102C10002DD1A069B8B101208B490860FFF7FCFBFA
:102C2000054606E0FFF7F8FB401B022801D9032008
:102C30000EE78348406A00F002000028F2D001202D
:102C400000F0FAFC13E000207F490860FFF7E4FB86
:102C5000054606E0FFF7E0FB401B022801D90320F0
:102C6000F6E67748406A00F002000028F2D12078AA
:102C700000F00400042873D100277148C06900F0F7
:102C8000805070B900BF6E48C06940F080506C49F8
:102C9000C8610846C06900F08050009000BF00BFC6
:102CA00001276A48006800F48070B0B9674800687E
:102CB00040F4807065490860FFF7AEFB054606E00A
:102CC000FFF7AAFB401B642801D90320C0E65F4838
:102CD000006800F480700028F2D000BFE06801288E
:102CE00006D15748006A40F001005549086227E0C4
:102CF000E06858B95248006A20F001005049086263
:102D00000846006A20F00400086219E0E06805281F
:102D10000BD14B48006A40F004004949086208465C
:102D2000006A40F0010008620AE04548006A20F0AD
:102D30000100434908620846006A20F00400086266
:102D400000BFE068A0B1FFF767FB054609E0FFF7A9
:102D500063FB401B41F28831884202D9032077E6A9
:102D600022E03748006A00F002000028EFD012E0AD
:102D7000FFF752FB054608E0FFF74EFB401B41F210
:102D80008831884201D9032062E62D48006A00F0AC
:102D900002000028F0D1012F05D12948C06920F098
:102DA00080502749C86100BFE069C8B32448406823
:102DB00000F00C00082860D0E069022848D100200B
:102DC00020490866FFF728FB054606E0FFF724FBCD
:102DD000401B022801D903203AE61948006800F098
:102DE00000700028F2D1206AB0F5803F07D1144866
:102DF000406820F40030A168084311494860D4E9D4
:102E0000080108430E49496821F4741108430C492C
:102E1000486001200B490866FFF7FEFA054607E007
:102E20003DE0FFF7F9FA401B022801D903200FE625
:102E30000348006800F000700028F2D02FE0000086
:102E400000100240000042428004424200700040F4
:102E5000002014490866FFF7DFFA054606E0FFF791
:102E6000DBFA401B022801D90320F1E50E48006877
:102E700000F000700028F2D111E0E069012800D1D3
:102E8000E6E50948466806F48031206A814204D1AB
:102E900006F47011606A814201D00120D8E500205B
:102EA000D6E500000000424200100240042808D18C
:102EB0004FF0E021096941F004014FF0E022116177
:102EC00007E04FF0E021096921F004014FF0E02212
:102ED0001161704770B504462546681EB0F1807FC9
:102EE00001D301200FE0681E4FF0E02148610F215F
:102EF0004FF0FF3000F05AFE00204FF0E0218861D3
:102F000007200861002070BD10B50346002200BFF5
:102F100093F83C00012801D1022010BD012083F864
:102F20003C0000BF22F0FF00CC6840EA040222F41B
:102F300040708C6840EA040222F480604C6840EAE9
:102F4000040222F400600C6840EA040222F480507B
:102F50000C6940EA040222F400504C6940EA040281
:102F600022F48040CC6940EA04021868426400BF41
:102F7000002083F83C0000BF00BFCEE770B50446D8
:102F80000D4615B994F842000BE0042D02D1432000
:102F9000005D06E0082D02D14420005D01E04520DF
:102FA000005D012801D0012070BD1DB9022084F808
:102FB00042000EE0042D03D102214320015508E018
:102FC000082D03D102214420015502E002214520B1
:102FD000015504222946206800F0ADFB2068406CB2
:102FE00040F400402168486416492068884213D0A4
:102FF0001549206888420FD02068B0F1804F0BD06F
:1030000012492068884207D011492068884203D0BD
:103010001049206888420CD12068806800F00706BB
:10302000062E0CD02068006840F00100216808607E
:1030300005E02068006840F0010021680860002079
:10304000B2E70000002C01400034014000040040C1
:1030500000080040000C004070B504460D461646BE
:1030600000BF94F83C00012801D1022070BD01206E
:1030700084F83C0000BF36B1042E1BD0082E31D09E
:103080000C2E5ED145E02946206800F065FB2068E3
:10309000806940F00800216888612068806920F01C
:1030A00004002168886120688069296908432168D3
:1030B000886147E02946206800F086FB2068806927
:1030C00040F40060216888612068806920F4806095
:1030D0002168886120688069296940EA01202168A7
:1030E00088612FE02946206800F0ACFB2068C069A9
:1030F00040F008002168C8612068C06920F0040021
:103100002168C8612068C069296908432168C861CD
:1031100018E02946206800F0D1FB2068C06940F41F
:1031200000602168C8612068C06920F4806021685F
:10313000C8612068C069296940EA01202168C86126
:1031400000E000BF00BF00BF002084F83C0000BFCB
:1031500000BF8BE710B504460CB9012010BD94F8F0
:103160003D0028B9002084F83C00204600F025F8F6
:10317000022084F83D00211D206800F07DFA012026
:1031800084F8460000BF84F83E0001213F2001552D
:10319000402001554120015500BF00BF012084F8A7
:1031A000420043200155442001554520015500BFF0
:1031B000012084F83D000020D0E7704770B5044638
:1031C0000D4615B994F83E000BE0042D02D13F20C6
:1031D000005D06E0082D02D14020005D01E04120A5
:1031E000005D012801D0012070BD1DB9022084F8C6
:1031F0003E000EE0042D03D102213F20015508E0DE
:10320000082D03D102214020015502E00221412076
:10321000015501222946206800F07CFA1F492068E8
:10322000884203D01E492068884201D1012000E075
:10323000002028B12068406C40F4004021684864B8
:1032400016492068884213D01549206888420FD05B
:103250002068B0F1804F0BD012492068884207D017
:1032600011492068884203D01049206888420CD157
:103270002068806800F00706062E0CD020680068E1
:1032800040F001002168086005E02068006840F017
:103290000100216808600020A6E70000002C014022
:1032A000003401400004004000080040000C0040D1
:1032B000704700002DE9F047044620680568206843
:1032C000C668206847694FF00008C14605F00F083E
:1032D000B8F1000F0AD105F0200038B106F0200047
:1032E00020B1204600F03EFBBDE8F087B8F1000FAA
:1032F00071D007F0010018B906F4907000286AD068
:1033000005F0010030B106F4807018B1E06B40F0B8
:103310000100E06305F0040030B107F0010018B1CE
:10332000E06B40F00200E06305F0020030B107F00E
:10333000010018B1E06B40F00400E06305F0080004
:1033400048B106F0200010B907F0010018B1E06B99
:1033500040F00800E063E06B68B305F0200028B19E
:1033600006F0200010B1204600F0FCFA2068406909
:10337000C0F38019E06B00F0080010B9B9F1000F3C
:1033800022D0204600F0CEFA2068406900F04000CC
:10339000B0B12068406920F0400021684861606B4E
:1033A00050B11848616B4863606BFEF7A5FC10B123
:1033B000606B416B88470CE02046FFF779FF08E01F
:1033C0002046FFF775FF04E02046FFF771FF00205D
:1033D000E06389E7FFE705F0800030B106F0800088
:1033E00018B1204600F08CFB7EE705F0400030B1BC
:1033F00006F0400018B1204600F0A4FA74E700BFC0
:1034000072E700001139000810B504460CB901201C
:1034100010BDA06900B100E000BF94F8390028B9E0
:10342000002084F83800204600F028F8242084F892
:1034300039002068C06820F400502168C860204628
:1034400000F0E0FA2068006920F4904021680861EB
:103450002068406920F02A00216848612068C0681F
:1034600040F400502168C8600020E063202084F808
:10347000390084F83A000020CAE7000010B586B091
:10348000044624492068884242D100BF00BF224838
:10349000806940F00400204988610846806900F096
:1034A0000400019000BF00BF00BF00BF00BF08467E
:1034B000806940F0040088610846806900F00400DB
:1034C000019000BF00BF00BF00BF00BF0846806979
:1034D00040F4804088610846806900F48040019093
:1034E00000BF00BF00BF48150290022003900120DA
:1034F00004900320059002A90848FEF7D5FD4FF47B
:10350000806002900020039002A90448FEF7CCFDE1
:1035100006B010BD00380140001002400008014014
:1035200010B5034693F83A0020282FD101B10AB90B
:10353000012010BD00BF93F83800012801D10220FE
:10354000F7E7012083F8380000BF99629A85DA8591
:103550000020D863222083F83A0000BF002083F8BF
:10356000380000BF1868C06840F480701C68E060D4
:103570001868406940F001001C6860611868C06804
:1035800040F020001C68E0600020D2E70220D0E775
:1035900010B504462049206888423BD11F48008866
:1035A00000F4004088BB1D48008800F4804070B1E2
:1035B0001B4800780A2803D000201849088024E01E
:1035C0001648008840F40040144908801DE0144863
:1035D00000780D2806D11148008840F480400F493A
:1035E000088012E00E4800780C490988C1F30D01EB
:1035F0000C4A505409480088401C08490880084675
:103600000088C72801DD00200880012204490648FF
:10361000FFF786FF10BD0000003801403000002099
:1036200032000020FC000020C4010020704700BFD1
:10363000FEE700BFFEE7704708B508490968C908FA
:103640004FF47A72B1FBF2F14143009100BF00BF29
:1036500000994A1E00920029F9D108BD00000020FF
:1036600010B5FEF7DFFE02F0A9FE012801D002F03E
:103670007DFB10BD7047000010B50268204B9842DA
:103680000ED0204B98420BD0B0F1804F08D01E4B8B
:10369000984205D01D4B984202D01D4B984203D151
:1036A00022F070024B681A43154B98420ED0154B0E
:1036B00098420BD0B0F1804F08D0134B984205D000
:1036C000124B984202D0124B984203D122F440721E
:1036D000CB681A4322F080034C6943EA040202607B
:1036E0008B68C3620B688362054B984202D0054B1E
:1036F000984201D10B6903630123436110BD0000AF
:10370000002C01400034014000040040000800404B
:10371000000C004030B501F01F05012404FA05F348
:10372000046A9C430462046A01F01F0502FA05F56D
:103730002C43046230BD30B501F01F05042404FAA7
:1037400005F3046A9C430462046A01F01F0502FA4F
:1037500005F52C43046230BD30B5056A25F001053E
:103760000562026A4368846924F0700424F003044B
:103770000D682C4322F002028D682A43104DA842A6
:1037800000D103E00F4DA84206D100BF22F008028D
:10379000CD682A4322F00402094DA84202D0094D07
:1037A000A84207D123F4807323F400734D692B439F
:1037B0008D692B43436084614D684563026230BD6F
:1037C000002C01400034014030B5056A25F0100599
:1037D0000562026A4368846924F4E04424F4407476
:1037E0000D6844EA052422F020028D6842EA0512A1
:1037F000124DA84200D103E0114DA84207D100BFED
:1038000022F08002CD6842EA051222F040020B4D00
:10381000A84202D00A4DA84209D123F4806323F4C0
:1038200000634D6943EA85038D6943EA850343607C
:1038300084614D688563026230BD0000002C014048
:103840000034014030B5056A25F480750562026ACE
:103850004368C46924F0700424F003040D682C4309
:1038600022F400728D6842EA0522124DA84200D16E
:1038700003E0114DA84207D100BF22F40062CD68D9
:1038800042EA052222F480620A4DA84202D00A4D83
:10389000A84209D123F4805323F400534D6943EA2D
:1038A00005138D6943EA05134360C4614D68C56320
:1038B000026230BD002C01400034014030B5056A81
:1038C00025F480550562036A4468C26922F4E04227
:1038D00022F440720D6842EA052223F400538D68F9
:1038E00043EA0533084DA84202D0084DA84204D14E
:1038F00024F480444D6944EA85144460C2614D68F3
:103900000564036230BD0000002C0140003401401A
:1039100070B505466C6A0020E085E0842046FFF71C
:10392000C7FC70BD0168C96821F490710268D1605C
:103930000168496921F0010102685161202180F884
:103940003A10704710B504462068C06820F0400067
:103950002168C860202084F839002046FFF766FE01
:10396000002010BD70B5044694F83A00222847D1D3
:10397000A068B0F5805F0CD1206950B90025A66A17
:1039800020684068C0F308003080A06A801CA062F4
:1039900015E0A56A0026A068B0F5805F03D0A06896
:1039A00028B9206918B920684068287004E02068A8
:1039B000406800F07F002870A06A401CA062E08D83
:1039C000401E80B2E085C8B92068C06820F02000A1
:1039D0002168C8602068C06820F480702168C860D1
:1039E0002068406920F0010021684861202084F8A7
:1039F0003A002046FFF7CCFD002070BD0020FCE718
:103A00000220FAE770B504462168096921F44051A3
:103A1000E2681143226811612269A1681143626959
:103A200041EA02052168C96841F20C6291432943C9
:103A30002268D1602168496921F44071A26911436B
:103A4000226851612D4A2168914202D1FEF7A2FFFE
:103A500001E0FEF78FFF00EBC00101EB001162688F
:103A60009200B1FBF2F100EBC00202EB00126368BE
:103A70009B00B2FBF3F26423B2FBF3F202EBC2034E
:103A800003EB0212A1EB8201322202EB011164224C
:103A9000B1FBF2F101F0F00100EBC00202EB001209
:103AA00063689B00B2FBF3F26423B2FBF3F201EB19
:103AB000021200EBC00101EB001163689B00B1FB37
:103AC000F3F100EBC00303EB00136668B600B3FB31
:103AD000F6F36426B3FBF6F303EBC30606EB03131E
:103AE000A1EB8301322303EB01116423B1FBF3F15A
:103AF00001F00F0111442268916070BD003801404F
:103B0000014691F83900212828D18868B0F5805FF6
:103B10000BD1086948B90A6A1088C0F308000B681D
:103B20005860086A801C086205E00B6A581C08622D
:103B300018780B685860C88C401E80B2C88458B989
:103B40000868C06820F080000B68D8600868C0680A
:103B500040F040000B68D860002070470220FCE76E
:103B600010B50248FFF7A6FB10BD0000C4010020FD
:103B700000BFFEE7490050EAC12018BF04204A0DEB
:103B800018BF40F0010040F2FF72B2EB515F08BF76
:103B900040F00200012808BF052070470248006875
:103BA000C0F30220704700000CED00E010B50028C3
:103BB00004DB0A07130E054A135406E00A07140E25
:103BC000034A00F00F031B1FD45410BD00E400E0B3
:103BD00018ED00E000BF70471249096821F00101AB
:103BE000104A11601049896821F001010E4A916064
:103BF00000BF0D49896801F001010029F9D10A4986
:103C0000C860896841F00101074A91600549096867
:103C100041F00101034A11601146096841F4800135
:103C200011607047082401400000024001B58EB0C9
:103C3000182104A8FCF73DFC00200190029003909D
:103C400000BF00BF4D48806940F400704B49886157
:103C50000846806900F40070009000BF00BF00BFFC
:103C600000BF0846806940F004008861084680690A
:103C700000F00400009000BF00BF00BF084640698C
:103C800040F0010048610846406900F001000090E2
:103C900000BF00BF022004908003069004A8FEF736
:103CA00005FD07200A9003200B900AA93448FEF76F
:103CB000FBF934483449086000204860002132484C
:103CC00081608021C160490001618900416100215A
:103CD00081614FF48051C161FEF7E2F800BF2A48CC
:103CE0002A49086208462849486200BF28482749EF
:103CF0000860002048604FF48071244881600121F1
:103D00000173032101610021017581614FF460217C
:103D1000C161FDF77FFE1D48FDF746FD00200190C3
:103D2000012002900720039001A91848FDF7BEFD6D
:103D3000012001900220029001A91448FDF7B6FD70
:103D4000022001900320029001A91048FDF7AEFD6A
:103D5000032211460B20FEF7BCFB0B20FEF7A9FB4C
:103D600000230B494C3108480E9AFEF7DFF8002279
:103D70000EA90648FDF700FF0FB000BD001002407D
:103D80000008014008000240040200204802002010
:103D90000024014030B58DB005460C461C2106A814
:103DA000FCF787FB0020029003900490059000BF71
:103DB00000BF3948806940F400603749886108468F
:103DC000806900F40060019000BF00BF00BF00BF29
:103DD00000BF0846806940F0040088610846806999
:103DE00000F00400019000BF00BF00BF00BF00BF93
:103DF0000846806940F0080088610846806900F044
:103E00000800019000BF00BF00BF8815029002208B
:103E10000390012004900320059002A91F48FEF79B
:103E200043F94FF40050029002A91D48FEF73CF9F7
:103E30001C481D4908600846446000218160C56037
:103E40000161416180218161FFF784F96020069062
:103E50000220089008200990002206A91248FFF7C6
:103E6000FBF800201149086048604FF48050086159
:103E7000002088604FF4005048614000C8610A4843
:103E8000FFF742F800210848FFF798F9002106489B
:103E9000FFF774F80DB030BD00100240000801407B
:103EA000000C0140002C014078020020C0020020DC
:103EB00070B504460D460848C56001460748FFF73F
:103EC00023F806480068406C40F400400349096844
:103ED00048640348046070BDC002002078020020DE
:103EE000342C014070B5044600204FF0E0210861F9
:103EF000FEF7DCFFE11704EB5171C1F3CF010C4A6F
:103F00001180E11704EB5171CD104FF47A704543E5
:103F10004FF0E020006940F002004FF0E02108611E
:103F200008464561006940F00100086170BD00006D
:103F30002800002030B50446002504E04FF47A70D4
:103F400000F004F86D1CA542F8D330BD70B50346EF
:103F500000224FF0E02675690D4E368803FB06F40B
:103F60004FF0E026B16910E04FF0E026B0698842DA
:103F70000BD0884202D20E1A324402E02E1A0E44AE
:103F800032440146A24200D300E0EDE700BF70BD1D
:103F90002800002000B585B000BF00BF214880691F
:103FA00040F004001F4988610846806900F0040061
:103FB000009000BF00BF00BF00BF00BF084680697F
:103FC00040F0040088610846806900F00400009019
:103FD00000BF00BF00BF08200190134802900120DD
:103FE000039001A91148FEF75FF8102001900E48D8
:103FF00002900120039001A90C48FEF755F8002219
:1040000003210920FEF765FA0920FEF752FA002283
:1040100003210A20FEF75DFA0A20FEF74AFA05B0EE
:1040200000BD000000100240000011100008014017
:1040300000BF054A126802F04002002AF9D0C2B25D
:10404000014B1B1D1A607047003801401CB500224F
:104050000221012001F0A4FE1D4908600846006805
:1040600018B11CA0FCF732F902E01FA0FCF72EF9F2
:1040700000220221012001F093FE20490860084639
:10408000006818B11EA0FCF721F902E021A0FCF79E
:104090001DF900220221012001F082FE2249086060
:1040A0000846006818B121A0FCF710F902E024A02E
:1040B000FCF70CF92748012100238022CDE90010EC
:1040C00025A1284802F04AF901F0E4FC1CBD0000DB
:1040D0001C000020B6D3C1D030B4B4BDA8B3C9B958
:1040E000A6A3A1A3A10D0A00B6D3C1D030B4B4BD1C
:1040F000A8CAA7B0DCA3A1A3A10D0A00200000203C
:10410000B6D3C1D031B4B4BDA8B3C9B9A6A3A1A3D5
:10411000A10D0A00B6D3C1D031B4B4BDA8CAA7B0AE
:10412000DCA3A1A3A10D0A0024000020B6D3C1D0B6
:1041300032B4B4BDA8B3C9B9A6A3A1A3A10D0A0006
:10414000B6D3C1D032B4B4BDA8CAA7B0DCA3A1A372
:10415000A10D0A000400002073746172745F746121
:10416000736B00000150000800B585B000BF00BFB0
:104170001B48806940F0040019498861084680693D
:1041800000F00400009000BF00BF00BF00BF00BFF0
:104190000846806940F0040088610846806900F0A4
:1041A0000400009000BF00BF00BF08200190002065
:1041B0000290012003900320049001A90948FDF713
:1041C00073FF102001900020029001200390032033
:1041D000049001A90348FDF767FF05B000BD00008A
:1041E000001002400008014000B585B000BF00BFCC
:1041F0002C48806940F004002A498861084680699B
:1042000000F00400009000BF00BF00BF00BF00BF6F
:104210000846806940F0040088610846806900F023
:104220000400009000BF00BF00BF00BF00BF0846F1
:10423000806940F0040088610846806900F004004D
:10424000009000BF00BF00BF20200190012002901D
:1042500003900320049001A91348FDF725FF402097
:10426000019001A91048FDF71FFF8020019001A9CE
:104270000D48FDF719FF00BF002220210A48FEF774
:10428000C5F800BF00BF002240210748FEF7BEF876
:1042900000BF00BF012240210348FEF7B7F800BF6E
:1042A00005B000BD001002400008014010B5FEF747
:1042B000C5F84FF4E01000F0FBFE4820FFF712FEB7
:1042C0004FF4E13001F0A4F8FFF78EFFFFF74CFF49
:1042D000472140F2E730FFF75DFD64214FF496700F
:1042E000FFF7E6FDFFF756FEFFF7B0FE002010BD1A
:1042F0002DE9F04105460E46294807680020294966
:10430000096881F8590027480068001D01F0A4F8E9
:1043100050B92448006890F82C10012088402249A8
:104320000968814320480160681CD8B9D6B11F498B
:1043300048681C49096888601A4982680968CA6027
:1043400018490968091D8268516016490968091DE4
:104350008160164A134909684A6111460968491C77
:1043600011601AE07C190F4800684460BC4207D213
:104370000C480168091D0E48006801F091F80CE036
:1043800008480168091D0B48006801F089F80A48CF
:104390000068844201D208480460BDE8F081000052
:1043A000540000204000002058000020F0050020AC
:1043B00048000020440000207000002010B5044692
:1043C00001F094F831480068401C304908603048DA
:1043D000006840B92E4804600846006801280DD1E5
:1043E00000F016FA0AE02B48006838B9284800683F
:1043F000C06AE16A884201D82548046026480068FE
:10440000401C2549086008460068606494F82C1038
:104410000120884021490968084320490860E16A71
:1044200001EB81011E4A02EB81014868A0608268AD
:10443000E260211D826851608160E16A01EB8101C7
:10444000174A02EB81026261E16A01EB8101144AC1
:1044500052F82110491CE26A02EB8202104B43F829
:10446000221001F08DF80B48006868B10848006818
:10447000C06AE16A884207D24FF08050094908605B
:10448000BFF34F8FBFF36F8F10BD000050000020AF
:10449000400000205C0000206C000020580000203C
:1044A0002003002004ED00E010B501F01FF81048D3
:1044B0000068D0B90F4800F0E3FF0F4800F0E0FFBC
:1044C0000C480E4908600C480D4908600022102174
:1044D000052001F065FC064908600846006820B127
:1044E00008A10348006801F00BF901F049F810BD7C
:1044F000880000200406002018060020800000200C
:1045000084000020546D72510000000010B516E0C8
:1045100000F0ECFF0C48C068C468201D00F09CFF50
:104520000A480068401E0949086009480068401EA2
:104530000749086001F024F8204600F05FF80448BD
:1045400000680028E4D110BDDC05002050000020E8
:104550004C00002070B504460D46206C70B1216CF3
:10456000E0680144E160D4E90210884201D3216887
:10457000E1602846226CE168FBF74EFF70BD2DE933
:10458000F04104460F4615464FF00008A66B206C1C
:1045900048B9206800282CD1A06802F019F880469C
:1045A0000020A06025E07DB93946226C6068FBF7E9
:1045B00033FF216C606808446060D4E901018842DF
:1045C00017D32068606014E03946226CE068FBF77E
:1045D00023FF216CE068411AE1602168E0688842AD
:1045E00003D2216CA068411AE160022D01D106B10D
:1045F000761E701CA0634046BDE8F08110B50446ED
:10460000206B00F0FBFF204600F0F8FF10BD00001B
:104610000146084A126812680AB9012200E0002225
:104620000A600A6822B9034A1268D268106800E07A
:10463000002070478000002030B54FF42053174809
:1046400000F007042CB1C01D20F00700134C041B20
:104650001B1B0246124C22600024114D6C60D018C6
:10466000083820F007000F4C206000240D4D2D6805
:104670006C600C4D2D682C601146441A4C60094C3E
:1046800024680C60084D4C682C60084D4C682C6008
:104690004FF00044064D2C6030BD00002C06002079
:1046A000940000209C000020A4000020A000002016
:1046B000B000002000BFFFF729FF0648006801286E
:1046C000F9D94FF0805004490860BFF34F8FBFF312
:1046D0006F8FF0E72003002004ED00E02DE9F041AA
:1046E00006460D4617469846069C0DB9246000E024
:1046F0002760E66325640121204601F099FB84F8D8
:1047000050800020A064BDE8F08100002DE9F05F3A
:1047100082460F4690469B460A9E0C9C4FEA8801B3
:10472000A522206BFBF7BDFEA8F10100216B01EB78
:10473000800929F0070909F0070008B9012000E005
:10474000002028B94FF4587224A12DA0FBF7BEFD1C
:1047500087B1002507E0795D04F134004155785DAB
:1047600000B902E06D1C102DF5D300BF00214320DD
:10477000015502E0002084F83400202E01D20120EF
:1047800000E0002028B940F2973214A11CA0FBF7EA
:104790009DFD202E00D31F26E662E66400202065E2
:1047A000201D00F07AFE04F1180000F076FE24616E
:1047B000C6F12000A06164620020606584F85800A2
:1047C00084F859005A465146484600F007FC2060DC
:1047D0000B9808B10B980460BDE8F09F2E2E5C2E5C
:1047E0002E5C4D6964646C6577617265735C4672BA
:1047F000656552544F535C7461736B732E63000094
:104800004572726F723A2025732C2025640D0A00C0
:1048100010B5002407E004EB84010F4A02EB81008D
:1048200000F02EFE641C202CF5D30C4800F028FE6E
:104830000B4800F025FE0B4800F022FE0A4800F06D
:104840001FFE0A4800F01CFE04480949086004489D
:104850000849086010BD000020030020A0050020CA
:10486000B4050020C8050020DC050020F00500206C
:10487000440000204800002010B50146164800E022
:10488000006803688B42FBD30246436813448B42A3
:1048900004D143684C682344436001460A464B6890
:1048A00013440468A34211D10C4C03682468A3424A
:1048B00008D04B680468646823444B6003681B6835
:1048C0000B6005E0054B1B680B6001E003680B60A3
:1048D000884200D0016010BD940000209C000020A0
:1048E0002DE9F04104460D4616461F464FF00008DC
:1048F00065602461B5420CD8F01BA169884202D3DF
:104900004FF0010811E0211D0948006800F0C8FDC2
:104910000BE0BE4204D2BD4202D34FF0010804E0D6
:10492000211D0448006800F0BBFD4046BDE8F08151
:10493000840000208000002070B5054600F0D6FD00
:10494000A86B08B9012400E0002400F019FE2046FD
:1049500070BD70B5054600F0C9FDA86BE96B8842D3
:1049600001D1012400E0002400F00AFE204670BDC1
:10497000F1B50098846C00262CB940F6D53220A100
:1049800028A0FBF7A3FCA06BE16B884201D20120B9
:1049900000E0002028B940F6D63219A121A0FBF78B
:1049A00095FCA06BE16B884227D294F94550002218
:1049B00069462046FFF7E3FD0646681C60B9606A59
:1049C00008B9012000E00020B0B904F1240001F092
:1049D00087FE88B101260FE07F2D01D0012000E085
:1049E000002028B940F6F63205A10EA0FBF76EFCB8
:1049F000681C40B284F8450000BF3046F8BD000096
:104A00002E2E5C2E2E5C4D6964646C657761726538
:104A1000735C4672656552544F535C71756575657C
:104A20002E6300004572726F723A2025732C202588
:104A3000640D0A0070B505460E460E480068C06851
:104A4000C468201D00F008FD94F8280000F0040060
:104A500028B132462946204600F0FEF805E094F8D9
:104A6000280000F0FE0084F828002046216A8847CC
:104A700070BD00008000002070B586B08AE002980A
:104A800000280CDA03AE2EB940F2063247A150A03E
:104A9000FBF71CFCD6E90020B168904700BF0298E4
:104AA000002877DB049C606908B9012000E0002041
:104AB00010B9201D00F0D0FC01A800F0F9F805465F
:104AC00002980A2864D2DFE800F06305072E365307
:104AD00006082F3700BF00BF00BF94F8280040F041
:104AE000010084F828000398A269811803462A4629
:104AF0002046FFF7F5FEA8B194F8280000F0040066
:104B000038B10398A26981182A46204600F0A4F81B
:104B100005E094F8280000F0FE0084F82800204604
:104B2000216A884735E000BF94F8280000F0FE00B5
:104B300084F828002DE000BF94F8280040F0010020
:104B400084F828000398A061A06908B1012000E062
:104B5000002028B940F2593214A11DA0FBF7B6FB82
:104B6000A06941192B462A462046FFF7B9FE10E0FE
:104B700094F8280000F0020018B9204600F03EFD2D
:104B800005E094F8280000F0FE0084F8280000E01A
:104B900000BF00BF002202A91148006801F0B8FA66
:104BA00000287FF46CAF06B070BD00002E2E5C2E86
:104BB0002E5C4D6964646C6577617265735C4672E6
:104BC000656552544F535C74696D6572732E630052
:104BD0004572726F723A2025732C2025640D0A00ED
:104BE00088000020F8B505460C4600F0B5FF684681
:104BF00000F05EF80646009820BB44B9B54206D8DE
:104C000001F014FE31462846FFF714FF1CE03CB1CA
:104C10000E480068006808B9012000E00020044642
:104C2000A91B22460A48006800F0B0FD01F0FEFD15
:104C300050B94FF0805007490860BFF34F8FBFF362
:104C40006F8F01E001F0F2FDF8BD0000840000204C
:104C50008800002004ED00E070B504460D461646BD
:104C600004E0A06905442046216A8847A0694119EB
:104C70002B4632462046FFF733FE0028F1D170BDA7
:104C800009480068006808B9012000E0002020B150
:104C90004FF0FF300549086005E003480068C06830
:104CA000006802490860704744000020700000203E
:104CB00070B5044601F092FB05460748006885423E
:104CC00004D200F00BF80120206001E000202060F9
:104CD00001480560284670BD9000002070B508E0CE
:104CE0000D480068C06804684FF0FF312046FFF7A8
:104CF000A1FE09480068006808B9012000E0002012
:104D00000028EDD00448056804480068024908609E
:104D10000248056070BD0000800000208400002073
:104D20000B480068401C08B9012000E0002020B9B1
:104D3000CE2208A115A0FBF7C9FA00BF502080F3CE
:104D40001188BFF34F8FBFF36F8F00BF00BFFEE727
:104D5000B40000202E2E5C2E2E5C4D6964646C65C0
:104D600077617265735C4672656552544F535C702F
:104D70006F727461626C655C525644535C41524D73
:104D80005F434D335C706F72742E63004572726FB7
:104D9000723A2025732C2025640D0A0008B500BF47
:104DA0006846FFF735FC044620460099FFF71AFFD6
:104DB000FFF762FEF4E770B5044600F097FB94F944
:104DC000455019E0A06C30B12046FFF7D1FD88B105
:104DD00000F0E2FD0EE0606A08B9012000E000206A
:104DE00038B904F1240001F07BFC18B100F0D4FDC7
:104DF00000E003E0681E45B2002DE3DC00BFFF20A9
:104E000084F8450000F0BCFB00F070FB94F94450BE
:104E100010E0206908B9012000E0002048B904F141
:104E2000100001F05DFC08B100F0B6FD681E45B24F
:104E300000E001E0002DECDC00BFFF2084F844001E
:104E400000F09EFB70BD00002DE9F04104464FF0DC
:104E5000000800F081FE4948006808B9FFF7ECFB44
:104E6000474800682040002875D1002C23D004F169
:104E70000800A0421FD9083404F0070000281BD006
:104E800004F00700C0F108002044A04211D904F04A
:104E90000700C0F10800044404F0070008B901202D
:104EA00000E0002040B99C2236A144A0FBF70EFA96
:104EB00002E0002400E00024002C4CD043480068AD
:104EC000844248D8424E3046056801E02E462D689F
:104ED0006868A04202D228680028F7D127480068F5
:104EE000854238D0306800F108082868306068686A
:104EF000001B102813D92F1907F0070008B901204B
:104F000000E0002020B9CF221EA12CA0FBF7DEF983
:104F10006868001B78606C603846FFF7ADFC2B4971
:104F200068680968081A294908600846006829491C
:104F30000968884203D2254800682649086010495C
:104F40006868096808436860002028602248006893
:104F5000401C2149086001F069FC08F0070008B90D
:104F6000012000E0002028B94FF4887205A113A0A9
:104F7000FBF7ACF94046BDE8F08100009C00002042
:104F8000B00000202E2E5C2E2E5C4D6964646C6592
:104F900077617265735C4672656552544F535C70FD
:104FA0006F727461626C655C4D656D4D616E675CBE
:104FB000686561705F342E63000000004572726F97
:104FC000723A2025732C2025640D0A00A0000020D1
:104FD00094000020A4000020A8000020001F4FF033
:104FE00080730360001F21F001030360001F034B67
:104FF000036014380260203870470000214D00081B
:105000001CB5044600F072FA1748022100238022E2
:10501000CDE9001015A1174801F0A0F916480221AA
:1050200000238022CDE9001014A1164801F096F962
:105030001548022100238022CDE9001013A1154854
:1050400001F08CF91448022100238022CDE90010E0
:1050500012A1154801F082F91448006800F0FEFB27
:1050600000F08EFA1CBD0000080000207461736B14
:1050700031000000095100080C0000207461736BBE
:105080003200000071510008100000207461736B41
:105090003300000019530008140000207465737475
:1050A0005F7461736B0000000D5400080400002061
:1050B00030B58FB00546012401200590000406900C
:1050C0000020079002200C90C1030D910E9505A8B9
:1050D000FDF7BAFC04460CB100BFFEE70F200090BC
:1050E00002200190002002904FF480600390002085
:1050F000049002216846FDF771FB04460CB100BF25
:10510000FEE70FB030BD00002CE01748007830B14A
:1051100001280CD0022811D003281DD115E000BFB2
:10512000012240211148FDF771F900BF15E000BFD1
:1051300020210E48FDF760F900BF0EE000BF4021BE
:105140000A48FDF759F900BF07E000BF8021074872
:10515000FDF752F900BF00E000BF00BF4FF47A70C6
:1051600000F03AFBD1E700001800002000080140E1
:105170000EB500240020029001900090002500262A
:10518000814660E04FF0FF3202A92F48006800F02E
:10519000BFFFA04212D02D49BDF80800FCF794FAD9
:1051A00005462BA0FBF792F8284601F0EDFE0746D6
:1051B0003A460B462DA0FBF789F802E02FA0FBF73B
:1051C00085F84FF0FF3201A93148006800F0A0FFD8
:1051D000A04212D01D49BDF80400FCF775FA06463E
:1051E0002CA0FBF773F8304601F0CEFE07463A4696
:1051F0000B462FA0FBF76AF802E031A0FBF766F838
:105200004FF0FF3269463348006800F081FFA0424A
:1052100012D00E49BDF80000FCF756FA81462EA0C8
:10522000FBF754F8484601F0AFFE07463A460B46F6
:1052300030A0FBF74BF802E032A0FBF747F84FF441
:105240007A7000F0C9FA9DE71C0000203333534008
:10525000BDD3CADCCAE4C8EBB5E7D1B9CAFDBEDD2F
:10526000B3C9B9A6A3A1A3A100000000CAE4C8EB7A
:10527000B5E7D1B9CEAA203A25660000BDD3CADC75
:10528000CAE4C8EBB5E7D1B9CAA7B0DC000000009A
:1052900020000020BDD3CADCCAE4B3F6B5E7D1B91B
:1052A000CAFDBEDDB3C9B9A6A3A1A3A10000000039
:1052B000CAE4B3F6B5E7D1B9CEAA203A2566000014
:1052C000BDD3CADCCAE4B3F6B5E7D1B9CAA7B0DC2E
:1052D0000000000024000020BDD3CADCCAE4B3F6FD
:1052E000B5E7C1F7CAFDBEDDB3C9B9A6A3A1A3A1A5
:1052F00000000000CAE4B3F6B5E7C1F7CEAA203A31
:1053000025660000BDD3CADCCAE4B3F6B5E7C1F731
:10531000CAA7B0DC0000000008B500262D48FEF743
:1053200085FC1E20FEF758FC53E02B48007801282E
:105330004FD1002445E00027002508E0032000FBB2
:105340000540244931F810000744681C85B20A2D35
:10535000F4DB0A20B7FBF0F080B2009024B1012CFE
:1053600010D0022C2AD11BE000235A1E69461B488C
:10537000006800F0DBFD0646012E02D018A0FAF707
:10538000A5FF1BE000235A1E69461848006800F07C
:10539000CDFD0646012E02D015A0FAF797FF0DE0CD
:1053A00000235A1E69461548006800F0BFFD0646F6
:1053B000012E02D012A0FAF789FF00BF00BF601CC7
:1053C00084B2032CB7DB0020034908701E20FEF7CF
:1053D00003FCAAE7C00000203D0000201C000020C4
:1053E000B6D3C1D030C8EBB6D30D0A0020000020E0
:1053F000B6D3C1D031C8EBB6D30D0A0024000020CB
:10540000B6D3C1D032C8EBB6D30D0A007047000046
:1054100010B504460D480E49086008464460002156
:105420008160C160016181610C214161FDF7ECFF88
:10543000012208490648FEF773F82520FDF739F8E0
:10544000032211462520FDF744F810BD0038014025
:10545000C40100203200002001460A69D1E9013070
:105460009860D1E9010358605068884201D188688A
:105470005060002008611068401E1060106870477E
:1054800000F1080141604FF0FF31816000F1080137
:10549000C160016100210160704700210161704716
:1054A00010B502460B685C1C0CB9106907E002F1EC
:1054B000080000E04068446824689C42FAD94468C7
:1054C0004C604C68A160886041600A611468641C8B
:1054D000146010BD42684A6093688B60936859609D
:1054E0009160086103685B1C0360704710B500BFE2
:1054F000502080F31188BFF34F8FBFF36F8F00BF31
:105500000B480068401C0A490860084600680128EA
:105510000DD108480068C0B208B9012000E00020A1
:1055200028B940F2731204A111A0FAF7CFFE10BD02
:10553000B400002004ED00E02E2E5C2E2E5C4D69A0
:1055400064646C6577617265735C4672656552541C
:105550004F535C706F727461626C655C5256445359
:105560005C41524D5F434D335C706F72742E63002B
:105570004572726F723A2025732C2025640D0A0043
:1055800010B50B48006828B94FF4BD7209A117A0E7
:10559000FAF79CFE06480068401E05490860084668
:1055A000006820B9002080F3118800BF00BF10BD43
:1055B000B40000202E2E5C2E2E5C4D6964646C6558
:1055C00077617265735C4672656552544F535C70C7
:1055D0006F727461626C655C525644535C41524D0B
:1055E0005F434D335C706F72742E63004572726F4F
:1055F000723A2025732C2025640D0A0070B50646EA
:105600003546002E3AD0083D2C461D496068096891
:10561000084008B1012000E0002028B94FF4927240
:1056200018A126A0FAF752FE206808B9012000E070
:10563000002028B940F2251212A120A0FAF746FE58
:105640000F49606809680840C0B12068B0B90C49CA
:10565000606809688843606000F07EFA1B496068F2
:1056600009680844194908602046FFF705F91848F9
:105670000068401C1649086001F0D8F870BD0000B1
:10568000B00000202E2E5C2E2E5C4D6964646C658B
:1056900077617265735C4672656552544F535C70F6
:1056A0006F727461626C655C4D656D4D616E675CB7
:1056B000686561705F342E63000000004572726F90
:1056C000723A2025732C2025640D0A00A0000020CA
:1056D000AC00002000204FF0E021086188610748FD
:1056E0000068C0084FF47A71B0FBF1F0401E4FF033
:1056F000E02148610320086170470000000000209D
:105700002DE9F04106460F462EB940F6C82211A1F8
:1057100019A0FAF7DBFD0025BFB1002412E01A48FA
:1057200000EBC4004068B04203D1174800EBC40549
:105730000AE035B9144850F8340010B9124800EBAB
:10574000C405641C082CEAD300BF0DB12F606E6045
:10575000BDE8F0812E2E5C2E2E5C4D6964646C6574
:1057600077617265735C4672656552544F535C7124
:10577000756575652E6300004572726F723A20255B
:10578000732C2025640D0A00E00200202DE9F04171
:1057900005460E4617462C46FFF7A8FE94F944002E
:1057A000401C10B9002084F8440094F94500401CC6
:1057B00010B9002084F84500FFF7E2FEA06B28B97D
:1057C0003A46314604F1240000F01EF92046FFF766
:1057D000F2FABDE8F081000070B504460025ACB1D6
:1057E0000F48006808B9012000E0002028B940F205
:1057F00049520CA114A0FAF769FD00F0ADF900219F
:105800002046FEF775FD01F011F805463DB94FF051
:10581000805011490860BFF34F8FBFF36F8F70BD89
:105820007C0000202E2E5C2E2E5C4D6964646C651D
:1058300077617265735C4672656552544F535C7450
:1058400061736B732E6300004572726F723A20258C
:10585000732C2025640D0A0004ED00E070B50546A8
:10586000FFF744FE15B92F48006800E028460446BB
:10587000201DFFF7F1FD78B9E06A00EB80002A49AE
:1058800051F8200040B994F82C1001208840274995
:105890000968814325480160A06A18B104F1180025
:1058A000FFF7DAFD22480068401C214908601D48C6
:1058B0000068844209D1211D1E48FFF70BFE1E48D7
:1058C0000068401C1C49086006E01C480068401E37
:1058D0001A490860FFF7D4F9FFF752FE1148006833
:1058E000844202D02046FEF789FE15480068C0B108
:1058F0000C480068844214D11248006808B901209D
:1059000000E0002028B940F2DC420FA117A0FAF70E
:10591000DDFC4FF0805019490860BFF34F8FBFF393
:105920006F8F70BD40000020200300205800002031
:105930006C000020DC0500204C00002050000020FE
:105940005C0000207C0000202E2E5C2E2E5C4D6919
:1059500064646C6577617265735C46726565525408
:105960004F535C7461736B732E6300004572726FEA
:10597000723A2025732C2025640D0A0004ED00E006
:1059800003490968016003490968416070470000E4
:105990006800002054000020012001490860704781
:1059A0006400002070B504460D462CB940F61C4238
:1059B00007A110A0FAF78AFC1248016818312046A6
:1059C000FFF76EFD01212846FEF792FC70BD000036
:1059D0002E2E5C2E2E5C4D6964646C657761726559
:1059E000735C4672656552544F535C7461736B739C
:1059F0002E6300004572726F723A2025732C2025A9
:105A0000640D0A004000002070B504460E4615469D
:105A10002CB940F6524211A119A0FAF757FC606860
:105A20001B490968C8611A49826809680A621849ED
:105A30000968183182685160154909681831816018
:105A4000134909688C622168491C21600DB14FF02F
:105A5000FF3629463046FEF74BFC70BD2E2E5C2EDD
:105A60002E5C4D6964646C6577617265735C467227
:105A7000656552544F535C7461736B732E63000001
:105A80004572726F723A2025732C2025640D0A002E
:105A9000400000201CB51B4800210B468022CDE9A8
:105AA000001019A11A4800F059FC0446012C02D13B
:105AB00000F08CFF0446012C15D100BF502080F36C
:105AC0001188BFF34F8FBFF36F8F00BF4FF0FF30D0
:105AD0001049086001201049086000200F49086043
